:0A0000000C9434000C9400000C94E2
:10000A0000000C945A000C9400000C9400000C940C
:10001A0000000C9400000C9400000C9400000C9456
:10002A0000000C9400000C9400000C9400000C9446
:10003A0000000C9400000C9400000C9400000C9436
:10004A0000000C9400000C9400000C9400000C9426
:10005A0000000C9400000C9400000C940000F8942A
:10006A00EE27EFBBF1E0F5BFE5BFF8E1A895A4B72D
:10007A00A77FA4BFF0936000E09360008DE0A2E048
:10008A00BB27ED938A95E9F780E098E0A0E0B1E01C
:10009A00ED930197E9F7E0E0EEBBEFEFEDBFE8E0A3
:1000AA00EEBFC0E0D5E00C9408040A921A92FA92C4
:1000BA006A937A938A939A93AA93BA93EA93FA934E
:1000CA00EFB7EA93E0E0E0936B000E941425E09317
:1000DA000505F0930605E1E0E0930305E0910405C8
:1000EA00EB3119F40E94562490C0EA3111F4C5D3B9
:1000FA008CC0E03119F40E943D2487C0EF3019F416
:10010A000E94AA2482C0E13119F40E94BE247DC053
:10011A00EB3219F40E94D22478C0EB3349F4EFE4AD
:10012A00EBB9A1E0B0E00E94F124EFE4EBB96DC0B5
:10013A00EB3429F4A0900505B090060566C0EB35AE
:10014A0029F4C0900505D09006055FC0EB3649F446
:10015A00E0910505F0910605E0930005F09301058D
:10016A0054C0EB3889F4A0910505B09106051197A2
:10017A0031F0A0910505B0910605109721F4E091A0
:10018A000505E093020541C0EB39F9F4A091050594
:10019A00B0910605119731F0A0910505B0910605B9
:1001AA00109791F4E0910505E0930F05E03061F0B6
:1001BA00E0E0F0E061EE73E4E0931805F0931905CE
:1001CA0060931A0570931B0520C0EB3AB1F4A09115
:1001DA000505B0910605A53FE6E0BE0720F4AC3060
:1001EA00E3E0BE0708F408C0E0910505F0910605B2
:1001FA00E0930D05F0930E0508C0EB3C19F40E943C
:10020A00082503C0EB3D09F4CAD2E0E2E0936B0093
:10021A00E991EFBFF991E991B991A99199918991E0
:10022A0079916991F9901990099018952A98A1E005
:10023A00B0E00E94F1242A9A2298A1E0B0E00E943C
:10024A00F124229AACECA7D0AEE4A5D0A0E0A3D0CA
:10025A00A0E0A1D0AFE79FD008950E948F2700E0C9
:10026A0010E020E030E050E0E0E0E09303052A9857
:10027A00A1E0B0E00E94F1242A9A2298A1E0B0E01D
:10028A000E94F124229AACEC86D0AEEB84D0ABD09B
:10029A000E2F1127A8D0FE2FE0E00E0F1F1F17FF09
:1002AA0008C051E0EFEFFFEFE01BF10B31968F0131
:1002BA0001C050E020E030E000FF02C02F5B3F4F5A
:1002CA0001FF02C023583F4F02FF02C026503F4F92
:1002DA0003FF02C02C503E4FF8010E944927AAE0B2
:1002EA00B0E00E945727BF01D901E4E6F0E00E947E
:1002FA005F27E60FF71F8F01513031F4E0E0F5E098
:10030A00E01BF10B8F0102C000501B4F2A98A1E09D
:10031A00B0E00E94F1242A9A2298A1E0B0E00E945B
:10032A00F124229AACEC37D0A4E435D0E09103054D
:10033A00E03071F400240016010629F0EFEFFFEF18
:10034A00E017F10709F404C00093070510930805A4
:10035A000E949627269608952A98A1E0B0E00E9466
:10036A00F1242A9A2298A1E0B0E00E94F124229A6C
:10037A00ACEC11D0A1E0B0E00E94F124AEE40BD0C5
:10038A00A0E009D0A0E007D0AFE705D0A1E0B0E037
:10039A000E94F1240895AA930E9491273C8110E0BB
:1003AA001830E8F42A9800E0033010F40F5FFCCF0D
:1003BA00E5B1AE2FE32FE170EE0FEE0FE470EA2BFA
:1003CA00E5B900E00B3410F40F5FFCCF2A9A00E085
:1003DA00063910F40F5FFCCF36951F5FE1CF0E94FC
:1003EA009827259608950E94912730E010E018304A
:1003FA0008F536952A9800E0033010F40F5FFCCF19
:10040A002A9A229800E0023110F40F5FFCCFE3B180
:10041A00E470E295E07FEE0F3E2B00E00D3210F41F
:10042A000F5FFCCF229A00E0063910F40F5FFCCF71
:10043A001F5FDDCFE32F0E949827AFC1E0E0E6BD42
:10044A000895E6B5089525970E948F2700E010E0E9
:10045A00E0E0E093B200E7E0E093B100209A289848
:10046A00A1E0B0E00E94F124289A2098E0E0EE830F
:10047A00EF83E887E987EA8730E020E050E0A0913F
:10048A00B200A03508F082C0189904C0203011F4D7
:10049A00503009F002C021E0D1DF189B04C020309F
:1004AA0011F0503009F001C051E0189904C0203011
:1004BA0011F0503009F469C050E0C3DF0E2F112744
:1004CA00BDDF313018F1E32FE150E695E695E69568
:1004DA00F0E0DE011696AE0FBF1FEC91EE0FEC9323
:1004EA000731E0E01E0720F00E31E0E01E0708F0B9
:1004FA000DC0E32FE150E695E695E695F0E0DE01C2
:10050A001696AE0FBF1FEC91E160EC933F5F393254
:10051A00E1F5EF81AE81EA0FA885EA0FA985AE0F52
:10052A00EA85EA1789F5FE81E0E0DF01EF81F0E074
:10053A00EA0FFB1FE0931C05F0931D05F885E0E028
:10054A00DF01E985F0E0EA0FFB1FE0931E05F09357
:10055A001F05E0911E05F0911F05F07859F0E09112
:10056A001E05F0911F05A0E0B5E00E948227EA1B54
:10057A00FB0B06C0E0911E05F0911F05E050FB4FF2
:10058A00E0931E05F0931F0501C079CFE0E0E093E8
:10059A00B1000E9496272B9608952497E0E0E883FD
:1005AA00E983EA83EB83E0911705E03009F44BDF36
:1005BA00E0911705EF5FE0931705E170E0931705E7
:1005CA004CDEE0910B05E03099F4E0E0E0930C0595
:1005DA00E0931805E0931905E0931A05E0931B05CB
:1005EA000E9477272998ACEDB5E00E949425AAC00D
:1005FA00E0910705F0910805662777270E940426EF
:10060A00DF01CB01E0910905F0910A0566277727FA
:10061A000E9404260E947C270E9437260E94722785
:10062A00AAE0B7ED83EA9CE30E948E26A091180502
:10063A00B091190580911A0590911B050E943E26DA
:10064A00E0931805F093190560931A0570931B053A
:10065A00A0911805B091190580911A0590911B0572
:10066A00E0E0F0E86BEB74E40E94212709F008F45B
:10067A0008C0E0931805F093190560931A05709362
:10068A001B05A0911805B091190580911A05909142
:10069A001B050E9489274CF0E0E0E0931805E093DF
:1006AA001905E0931A05E0931B05A0911805B0916E
:1006BA00190580911A0590911B050E9489270CF44F
:1006CA00299AE0911805F091190560911A0570911F
:1006DA001B050E94CB25DF010E949425E091180595
:1006EA00F091190560911A0570911B050E94CB259E
:1006FA00EC3DA5E0FA0709F02998A0911805B091F8
:10070A00190580911A0590911B05E0E0F0E86BEB62
:10071A0074E40E9437260E94CB25DF010E949425AB
:10072A00A0911805B091190580911A0590911B05A1
:10073A00E0E0F0E060E870E40E94DC260E94CB254D
:10074A00E0930C05F894E0910705F0910805E09311
:10075A001005F0931105E0910C05E0931205E09164
:10076A000F05E0930B05E0910D05F0910E05E0935E
:10077A000905F0930A05E0911E05F0911F05E09323
:10078A001305F0931405E0911C05F0911D05E09303
:10079A001505F0931605789406CF24960895E0E897
:1007AA00E0936100E0E0E0936100E0930405E093E8
:1007BA000505E0930605E4E15E2EEAE24E2EE0E04E
:1007CA00E0930205AA24BB24EEEBF7E06F01E0E018
:1007DA00E0930005E0930105E0930305E6E1E4B93F
:1007EA00E4E0E5B9EFEFEAB9EFECEBB9EFE3E7B92B
:1007FA00E8E2E8B9B1DD0E94D2240E9408250895F2
:10080A00E3E0E5BD0895CBDFFBDFE0E0F5E0E09350
:10081A000705F0930805E2ECF6E0E0930905F0938A
:10082A000A05E0E0E0930B05E0930C05FFDC15DD1B
:10083A00A0E2B3E00E949425E0910705F091080533
:10084A00E0931005F0931105E0910905F0910A056E
:10085A00E0930D05F0930E05E0910B05E0930F056B
:10086A00E0910C05E0931205E1E0E0936800E0E214
:10087A00E0936B00789491DEFFCF1A930A93E1E13B
:10088A005E2EE6E14E2EE0E27E2EE0E16E2EE0E202
:10089A009E2EEAE28E2E0EEB17E00E949D2458B897
:1008AA0048B878B868B898B888B858B848B878B81E
:1008BA0068B898B888B858B848B878B868B898B8CE
:1008CA0088B858B848B878B868B898B888B858B8DE
:1008DA0048B878B868B898B888B858B848B878B8EE
:1008EA0068B898B888B858B848B878B868B898B89E
:1008FA0088B858B848B878B868B898B888B858B8AE
:10090A0048B878B868B898B888B858B848B878B8BD
:10091A0068B898B888B858B848B878B868B898B86D
:10092A0088B858B848B878B868B898B888B858B87D
:10093A0048B878B868B898B888B858B848B878B88D
:10094A0068B898B888B858B848B878B868B898B83D
:10095A0088B858B848B878B868B898B888B858B84D
:10096A0048B878B868B898B888B858B848B878B85D
:10097A0068B898B888B858B848B878B868B898B80D
:10098A0088B858B848B878B868B898B888B858B81D
:10099A0048B878B868B898B888B858B848B878B82D
:1009AA0068B898B888B858B848B878B868B898B8DD
:1009BA0088B858B848B878B868B898B888B858B8ED
:1009CA0048B878B868B898B888B858B848B878B8FD
:1009DA0068B898B888B858B848B878B868B898B8AD
:1009EA0088B858B848B878B868B898B888B858B8BD
:1009FA0048B878B868B898B888B858B848B878B8CD
:100A0A0068B898B888B858B848B878B868B898B87C
:100A1A0088B858B848B878B868B898B888B858B88C
:100A2A0048B878B868B898B888B858B848B878B89C
:100A3A0068B898B888B858B848B878B868B898B84C
:100A4A0088B858B848B878B868B898B888B858B85C
:100A5A0048B878B868B898B888B858B848B878B86C
:100A6A0068B898B888B858B848B878B868B898B81C
:100A7A0088B858B848B878B868B898B888B858B82C
:100A8A0048B878B868B898B888B858B848B878B83C
:100A9A0068B898B888B858B848B878B868B898B8EC
:100AAA0088B858B848B878B868B898B888B858B8FC
:100ABA0048B878B868B898B888B858B848B878B80C
:100ACA0068B898B888B858B848B878B868B898B8BC
:100ADA0088B858B848B878B868B898B888B858B8CC
:100AEA0048B878B868B898B888B858B848B878B8DC
:100AFA0068B898B888B858B848B878B868B898B88C
:100B0A0088B858B848B878B868B898B888B858B89B
:100B1A0048B878B868B898B888B858B848B878B8AB
:100B2A0068B898B888B858B848B878B868B898B85B
:100B3A0088B858B848B878B868B898B888B858B86B
:100B4A0048B878B868B898B888B858B848B878B87B
:100B5A0068B898B888B858B848B878B868B898B82B
:100B6A0088B858B848B878B868B898B888B858B83B
:100B7A0048B878B868B898B888B858B848B878B84B
:100B8A0068B898B888B858B848B878B868B898B8FB
:100B9A0088B858B848B878B868B898B888B858B80B
:100BAA0048B878B868B898B888B858B848B878B81B
:100BBA0068B898B888B858B848B878B868B898B8CB
:100BCA0088B858B848B878B868B898B888B858B8DB
:100BDA0048B878B868B898B888B858B848B878B8EB
:100BEA0068B898B888B858B848B878B868B898B89B
:100BFA0088B858B848B878B868B898B888B858B8AB
:100C0A0048B878B868B898B888B858B848B878B8BA
:100C1A0068B898B888B858B848B878B868B898B86A
:100C2A0088B858B848B878B868B898B888B858B87A
:100C3A0048B878B868B898B888B858B848B878B88A
:100C4A0068B898B888B858B848B878B868B898B83A
:100C5A0088B858B848B878B868B898B888B858B84A
:100C6A0048B878B868B898B888B858B848B878B85A
:100C7A0068B898B888B858B848B878B868B898B80A
:100C8A0088B858B848B878B868B898B888B858B81A
:100C9A0048B878B868B898B888B858B848B878B82A
:100CAA0068B898B888B858B848B878B868B898B8DA
:100CBA0088B858B848B878B868B898B888B858B8EA
:100CCA0048B878B868B898B888B858B848B878B8FA
:100CDA0068B898B888B858B848B878B868B898B8AA
:100CEA0088B858B848B878B868B898B888B858B8BA
:100CFA0048B878B868B898B888B858B848B878B8CA
:100D0A0068B898B888B858B848B878B868B898B879
:100D1A0088B858B848B878B868B898B888B858B889
:100D2A0048B878B868B898B888B858B848B878B899
:100D3A0068B898B888B858B848B878B868B898B849
:100D4A0088B858B848B878B868B898B888B858B859
:100D5A0048B878B868B898B888B858B848B878B869
:100D6A0068B898B888B858B848B878B868B898B819
:100D7A0088B858B848B878B868B898B888B858B829
:100D8A0048B878B868B898B888B858B848B878B839
:100D9A0068B898B888B858B848B878B868B898B8E9
:100DAA0088B858B848B878B868B898B888B858B8F9
:100DBA0048B878B868B898B888B858B848B878B809
:100DCA0068B898B888B858B848B878B868B898B8B9
:100DDA0088B858B848B878B868B898B888B858B8C9
:100DEA0048B878B868B898B888B858B848B878B8D9
:100DFA0068B898B888B858B848B878B868B898B889
:100E0A0088B858B848B878B868B898B888B858B898
:100E1A0048B878B868B898B888B858B848B878B8A8
:100E2A0068B898B888B858B848B878B868B898B858
:100E3A0088B858B848B878B868B898B888B858B868
:100E4A0048B878B868B898B888B858B848B878B878
:100E5A0068B898B888B858B848B878B868B898B828
:100E6A0088B858B848B878B868B898B888B858B838
:100E7A0048B878B868B898B888B858B848B878B848
:100E8A0068B898B888B858B848B878B868B898B8F8
:100E9A0088B858B848B878B868B898B888B858B808
:100EAA0048B878B868B898B888B858B848B878B818
:100EBA0068B898B888B858B848B878B868B898B8C8
:100ECA0088B858B848B878B868B898B888B858B8D8
:100EDA0048B878B868B898B888B858B848B878B8E8
:100EEA0068B898B888B858B848B878B868B898B898
:100EFA0088B858B848B878B868B898B888B858B8A8
:100F0A0048B878B868B898B888B858B848B878B8B7
:100F1A0068B898B888B858B848B878B868B898B867
:100F2A0088B858B848B878B868B898B888B858B877
:100F3A0048B878B868B898B888B858B848B878B887
:100F4A0068B898B888B858B848B878B868B898B837
:100F5A0088B858B848B878B868B898B888B858B847
:100F6A0048B878B868B898B888B858B848B878B857
:100F7A0068B898B888B858B848B878B868B898B807
:100F8A0088B858B848B878B868B898B888B858B817
:100F9A0048B878B868B898B888B858B848B878B827
:100FAA0068B898B888B858B848B878B868B898B8D7
:100FBA0088B858B848B878B868B898B888B858B8E7
:100FCA0048B878B868B898B888B858B848B878B8F7
:100FDA0068B898B888B858B848B878B868B898B8A7
:100FEA0088B858B848B878B868B898B888B858B8B7
:100FFA0048B878B868B898B888B858B848B878B8C7
:10100A0068B898B888B858B848B878B868B898B876
:10101A0088B858B848B878B868B898B888B858B886
:10102A0048B878B868B898B888B858B848B878B896
:10103A0068B898B888B858B848B878B868B898B846
:10104A0088B858B848B878B868B898B888B858B856
:10105A0048B878B868B898B888B858B848B878B866
:10106A0068B898B888B858B848B878B868B898B816
:10107A0088B858B848B878B868B898B888B858B826
:10108A0048B878B868B898B888B858B848B878B836
:10109A0068B898B888B858B848B878B868B898B8E6
:1010AA0088B858B848B878B868B898B888B858B8F6
:1010BA0048B878B868B898B888B858B848B878B806
:1010CA0068B898B888B858B848B878B868B898B8B6
:1010DA0088B858B848B878B868B898B888B858B8C6
:1010EA0048B878B868B898B888B858B848B878B8D6
:1010FA0068B898B888B858B848B878B868B898B886
:10110A0088B858B848B878B868B898B888B858B895
:10111A0048B878B868B898B888B858B848B878B8A5
:10112A0068B898B888B858B848B878B868B898B855
:10113A0088B858B848B878B868B898B888B858B865
:10114A0048B878B868B898B888B858B848B878B875
:10115A0068B898B888B858B848B878B868B898B825
:10116A0088B858B848B878B868B898B888B858B835
:10117A0048B878B868B898B888B858B848B878B845
:10118A0068B898B888B858B848B878B868B898B8F5
:10119A0088B858B848B878B868B898B888B858B805
:1011AA0048B878B868B898B888B858B848B878B815
:1011BA0068B898B888B858B848B878B868B898B8C5
:1011CA0088B858B848B878B868B898B888B858B8D5
:1011DA0048B878B868B898B888B858B848B878B8E5
:1011EA0068B898B888B858B848B878B868B898B895
:1011FA0088B858B848B878B868B898B888B858B8A5
:10120A0048B878B868B898B888B858B848B878B8B4
:10121A0068B898B888B858B848B878B868B898B864
:10122A0088B858B848B878B868B898B888B858B874
:10123A0048B878B868B898B888B858B848B878B884
:10124A0068B898B888B858B848B878B868B898B834
:10125A0088B858B848B878B868B898B888B858B844
:10126A0048B878B868B898B888B858B848B878B854
:10127A0068B898B888B858B848B878B868B898B804
:10128A0088B858B848B878B868B898B888B858B814
:10129A0048B878B868B898B888B858B848B878B824
:1012AA0068B898B888B858B848B878B868B898B8D4
:1012BA0088B858B848B878B868B898B888B858B8E4
:1012CA0048B878B868B898B888B858B848B878B8F4
:1012DA0068B898B888B858B848B878B868B898B8A4
:1012EA0088B858B848B878B868B898B888B858B8B4
:1012FA0048B878B868B898B888B858B848B878B8C4
:10130A0068B898B888B858B848B878B868B898B873
:10131A0088B858B848B878B868B898B888B858B883
:10132A0048B878B868B898B888B858B848B878B893
:10133A0068B898B888B858B848B878B868B898B843
:10134A0088B858B848B878B868B898B888B858B853
:10135A0048B878B868B898B888B858B848B878B863
:10136A0068B898B888B858B848B878B868B898B813
:10137A0088B858B848B878B868B898B888B858B823
:10138A0048B878B868B898B888B858B848B878B833
:10139A0068B898B888B858B848B878B868B898B8E3
:1013AA0088B858B848B878B868B898B888B858B8F3
:1013BA0048B878B868B898B888B858B848B878B803
:1013CA0068B898B888B858B848B878B868B898B8B3
:1013DA0088B858B848B878B868B898B888B858B8C3
:1013EA0048B878B868B898B888B858B848B878B8D3
:1013FA0068B898B888B858B848B878B868B898B883
:10140A0088B858B848B878B868B898B888B858B892
:10141A0048B878B868B898B888B858B848B878B8A2
:10142A0068B898B888B858B848B878B868B898B852
:10143A0088B858B848B878B868B898B888B858B862
:10144A0048B878B868B898B888B858B848B878B872
:10145A0068B898B888B858B848B878B868B898B822
:10146A0088B858B848B878B868B898B888B858B832
:10147A0048B878B868B898B888B858B848B878B842
:10148A0068B898B888B858B848B878B868B898B8F2
:10149A0088B858B848B878B868B898B888B858B802
:1014AA0048B878B868B898B888B858B848B878B812
:1014BA0068B898B888B858B848B878B868B898B8C2
:1014CA0088B858B848B878B868B898B888B858B8D2
:1014DA0048B878B868B898B888B858B848B878B8E2
:1014EA0068B898B888B858B848B878B868B898B892
:1014FA0088B858B848B878B868B898B888B858B8A2
:10150A0048B878B868B898B888B858B848B878B8B1
:10151A0068B898B888B858B848B878B868B898B861
:10152A0088B858B848B878B868B898B888B858B871
:10153A0048B878B868B898B888B858B848B878B881
:10154A0068B898B888B858B848B878B868B898B831
:10155A0088B858B848B878B868B898B888B858B841
:10156A0048B878B868B898B888B858B848B878B851
:10157A0068B898B888B858B848B878B868B898B801
:10158A0088B858B848B878B868B898B888B858B811
:10159A0048B878B868B898B888B858B848B878B821
:1015AA0068B898B888B858B848B878B868B898B8D1
:1015BA0088B858B848B878B868B898B888B858B8E1
:1015CA0048B878B868B898B888B858B848B878B8F1
:1015DA0068B898B888B858B848B878B868B898B8A1
:1015EA0088B858B848B878B868B898B888B858B8B1
:1015FA0048B878B868B898B888B858B848B878B8C1
:10160A0068B898B888B858B848B878B868B898B870
:10161A0088B858B848B878B868B898B888B858B880
:10162A0048B878B868B898B888B858B848B878B890
:10163A0068B898B888B858B848B878B868B898B840
:10164A0088B858B848B878B868B898B888B858B850
:10165A0048B878B868B898B888B858B848B878B860
:10166A0068B898B888B858B848B878B868B898B810
:10167A0088B858B848B878B868B898B888B858B820
:10168A0048B878B868B898B888B858B848B878B830
:10169A0068B898B888B858B848B878B868B898B8E0
:1016AA0088B858B848B878B868B898B888B858B8F0
:1016BA0048B878B868B898B888B858B848B878B800
:1016CA0068B898B888B858B848B878B868B898B8B0
:1016DA0088B858B848B878B868B898B888B858B8C0
:1016EA0048B878B868B898B888B858B848B878B8D0
:1016FA0068B898B888B858B848B878B868B898B880
:10170A0088B858B848B878B868B898B888B858B88F
:10171A0048B878B868B898B888B858B848B878B89F
:10172A0068B898B888B858B848B878B868B898B84F
:10173A0088B858B848B878B868B898B888B858B85F
:10174A0048B878B868B898B888B858B848B878B86F
:10175A0068B898B888B858B848B878B868B898B81F
:10176A0088B858B848B878B868B898B888B858B82F
:10177A0048B878B868B898B888B858B848B878B83F
:10178A0068B898B888B858B848B878B868B898B8EF
:10179A0088B858B848B878B868B898B888B858B8FF
:1017AA0048B878B868B898B888B858B848B878B80F
:1017BA0068B898B888B858B848B878B868B898B8BF
:1017CA0088B858B848B878B868B898B888B858B8CF
:1017DA0048B878B868B898B888B858B848B878B8DF
:1017EA0068B898B888B858B848B878B868B898B88F
:1017FA0088B858B848B878B868B898B888B858B89F
:10180A0048B878B868B898B888B858B848B878B8AE
:10181A0068B898B888B858B848B878B868B898B85E
:10182A0088B858B848B878B868B898B888B858B86E
:10183A0048B878B868B898B888B858B848B878B87E
:10184A0068B898B888B858B848B878B868B898B82E
:10185A0088B858B848B878B868B898B888B858B83E
:10186A0048B878B868B898B888B858B848B878B84E
:10187A0068B898B888B858B848B878B868B898B8FE
:10188A0088B858B848B878B868B898B888B858B80E
:10189A0048B878B868B898B888B858B848B878B81E
:1018AA0068B898B888B858B848B878B868B898B8CE
:1018BA0088B858B848B878B868B898B888B858B8DE
:1018CA0048B878B868B898B888B858B848B878B8EE
:1018DA0068B898B888B858B848B878B868B898B89E
:1018EA0088B858B848B878B868B898B888B858B8AE
:1018FA0048B878B868B898B888B858B848B878B8BE
:10190A0068B898B888B858B848B878B868B898B86D
:10191A0088B858B848B878B868B898B888B858B87D
:10192A0048B878B868B898B888B858B848B878B88D
:10193A0068B898B888B858B848B878B868B898B83D
:10194A0088B858B848B878B868B898B888B858B84D
:10195A0048B878B868B898B888B858B848B878B85D
:10196A0068B898B888B858B848B878B868B898B80D
:10197A0088B858B848B878B868B898B888B858B81D
:10198A0048B878B868B898B888B858B848B878B82D
:10199A0068B898B888B858B848B878B868B898B8DD
:1019AA0088B858B848B878B868B898B888B858B8ED
:1019BA0048B878B868B898B888B858B848B878B8FD
:1019CA0068B898B888B858B848B878B868B898B8AD
:1019DA0088B858B848B878B868B898B888B858B8BD
:1019EA0048B878B868B898B888B858B848B878B8CD
:1019FA0068B898B888B858B848B878B868B898B87D
:101A0A0088B858B848B878B868B898B888B858B88C
:101A1A0048B878B868B898B888B858B848B878B89C
:101A2A0068B898B888B858B848B878B868B898B84C
:101A3A0088B858B848B878B868B898B888B858B85C
:101A4A0048B878B868B898B888B858B848B878B86C
:101A5A0068B898B888B858B848B878B868B898B81C
:101A6A0088B858B848B878B868B898B888B858B82C
:101A7A0048B878B868B898B888B858B848B878B83C
:101A8A0068B898B888B858B848B878B868B898B8EC
:101A9A0088B858B848B878B868B898B888B858B8FC
:101AAA0048B878B868B898B888B858B848B878B80C
:101ABA0068B898B888B858B848B878B868B898B8BC
:101ACA0088B858B848B878B868B898B888B858B8CC
:101ADA0048B878B868B898B888B858B848B878B8DC
:101AEA0068B898B888B858B848B878B868B898B88C
:101AFA0088B858B848B878B868B898B888B858B89C
:101B0A0048B878B868B898B888B858B848B878B8AB
:101B1A0068B898B888B858B848B878B868B898B85B
:101B2A0088B858B848B878B868B898B888B858B86B
:101B3A0048B878B868B898B888B858B848B878B87B
:101B4A0068B898B888B858B848B878B868B898B82B
:101B5A0088B858B848B878B868B898B888B858B83B
:101B6A0048B878B868B898B888B858B848B878B84B
:101B7A0068B898B888B858B848B878B868B898B8FB
:101B8A0088B858B848B878B868B898B888B858B80B
:101B9A0048B878B868B898B888B858B848B878B81B
:101BAA0068B898B888B858B848B878B868B898B8CB
:101BBA0088B858B848B878B868B898B888B858B8DB
:101BCA0048B878B868B898B888B858B848B878B8EB
:101BDA0068B898B888B858B848B878B868B898B89B
:101BEA0088B858B848B878B868B898B888B858B8AB
:101BFA0048B878B868B898B888B858B848B878B8BB
:101C0A0068B898B888B858B848B878B868B898B86A
:101C1A0088B858B848B878B868B898B888B858B87A
:101C2A0048B878B868B898B888B858B848B878B88A
:101C3A0068B898B888B858B848B878B868B898B83A
:101C4A0088B858B848B878B868B898B888B858B84A
:101C5A0048B878B868B898B888B858B848B878B85A
:101C6A0068B898B888B858B848B878B868B898B80A
:101C7A0088B858B848B878B868B898B888B858B81A
:101C8A0048B878B868B898B888B858B848B878B82A
:101C9A0068B898B888B858B848B878B868B898B8DA
:101CAA0088B858B848B878B868B898B888B858B8EA
:101CBA0048B878B868B898B888B858B848B878B8FA
:101CCA0068B898B888B858B848B878B868B898B8AA
:101CDA0088B858B848B878B868B898B888B858B8BA
:101CEA0048B878B868B898B888B858B848B878B8CA
:101CFA0068B898B888B858B848B878B868B898B87A
:101D0A0088B858B848B878B868B898B888B858B889
:101D1A0048B878B868B898B888B858B848B878B899
:101D2A0068B898B888B858B848B878B868B898B849
:101D3A0088B858B848B878B868B898B888B858B859
:101D4A0048B878B868B898B888B858B848B878B869
:101D5A0068B898B888B858B848B878B868B898B819
:101D6A0088B858B848B878B868B898B888B858B829
:101D7A0048B878B868B898B888B858B848B878B839
:101D8A0068B898B888B858B848B878B868B898B8E9
:101D9A0088B858B848B878B868B898B888B858B8F9
:101DAA0048B878B868B898B888B858B848B878B809
:101DBA0068B898B888B858B848B878B868B898B8B9
:101DCA0088B858B848B878B868B898B888B858B8C9
:101DDA0048B878B868B898B888B858B848B878B8D9
:101DEA0068B898B888B858B848B878B868B898B889
:101DFA0088B858B848B878B868B898B888B858B899
:101E0A0048B878B868B898B888B858B848B878B8A8
:101E1A0068B898B888B858B848B878B868B898B858
:101E2A0088B858B848B878B868B898B888B858B868
:101E3A0048B878B868B898B888B858B848B878B878
:101E4A0068B898B888B858B848B878B868B898B828
:101E5A0088B858B848B878B868B898B888B858B838
:101E6A0048B878B868B898B888B858B848B878B848
:101E7A0068B898B888B858B848B878B868B898B8F8
:101E8A0088B858B848B878B868B898B888B858B808
:101E9A0048B878B868B898B888B858B848B878B818
:101EAA0068B898B888B858B848B878B868B898B8C8
:101EBA0088B858B848B878B868B898B888B858B8D8
:101ECA0048B878B868B898B888B858B848B878B8E8
:101EDA0068B898B888B858B848B878B868B898B898
:101EEA0088B858B848B878B868B898B888B858B8A8
:101EFA0048B878B868B898B888B858B848B878B8B8
:101F0A0068B898B888B858B848B878B868B898B867
:101F1A0088B858B848B878B868B898B888B858B877
:101F2A0048B878B868B898B888B858B848B878B887
:101F3A0068B898B888B858B848B878B868B898B837
:101F4A0088B858B848B878B868B898B888B858B847
:101F5A0048B878B868B898B888B858B848B878B857
:101F6A0068B898B888B858B848B878B868B898B807
:101F7A0088B858B848B878B868B898B888B858B817
:101F8A0048B878B868B898B888B858B848B878B827
:101F9A0068B898B888B858B848B878B868B898B8D7
:101FAA0088B858B848B878B868B898B888B858B8E7
:101FBA0048B878B868B898B888B858B848B878B8F7
:101FCA0068B898B888B858B848B878B868B898B8A7
:101FDA0088B858B848B878B868B898B888B858B8B7
:101FEA0048B878B868B898B888B858B848B878B8C7
:101FFA0068B898B888B858B848B878B868B898B877
:10200A0088B858B848B878B868B898B888B858B886
:10201A0048B878B868B898B888B858B848B878B896
:10202A0068B898B888B858B848B878B868B898B846
:10203A0088B858B848B878B868B898B888B858B856
:10204A0048B878B868B898B888B858B848B878B866
:10205A0068B898B888B858B848B878B868B898B816
:10206A0088B858B848B878B868B898B888B858B826
:10207A0048B878B868B898B888B858B848B878B836
:10208A0068B898B888B858B848B878B868B898B8E6
:10209A0088B858B848B878B868B898B888B858B8F6
:1020AA0048B878B868B898B888B858B848B878B806
:1020BA0068B898B888B858B848B878B868B898B8B6
:1020CA0088B858B848B878B868B898B888B858B8C6
:1020DA0048B878B868B898B888B858B848B878B8D6
:1020EA0068B898B888B858B848B878B868B898B886
:1020FA0088B858B848B878B868B898B888B858B896
:10210A0048B878B868B898B888B858B848B878B8A5
:10211A0068B898B888B858B848B878B868B898B855
:10212A0088B858B848B878B868B898B888B858B865
:10213A0048B878B868B898B888B858B848B878B875
:10214A0068B898B888B858B848B878B868B898B825
:10215A0088B858B848B878B868B898B888B858B835
:10216A0048B878B868B898B888B858B848B878B845
:10217A0068B898B888B858B848B878B868B898B8F5
:10218A0088B858B848B878B868B898B888B858B805
:10219A0048B878B868B898B888B858B848B878B815
:1021AA0068B898B888B858B848B878B868B898B8C5
:1021BA0088B858B848B878B868B898B888B858B8D5
:1021CA0048B878B868B898B888B858B848B878B8E5
:1021DA0068B898B888B858B848B878B868B898B895
:1021EA0088B858B848B878B868B898B888B858B8A5
:1021FA0048B878B868B898B888B858B848B878B8B5
:10220A0068B898B888B858B848B878B868B898B864
:10221A0088B858B848B878B868B898B888B858B874
:10222A0048B878B868B898B888B858B848B878B884
:10223A0068B898B888B858B848B878B868B898B834
:10224A0088B858B848B878B868B898B888B858B844
:10225A0048B878B868B898B888B858B848B878B854
:10226A0068B898B888B858B848B878B868B898B804
:10227A0088B858B848B878B868B898B888B858B814
:10228A0048B878B868B898B888B858B848B878B824
:10229A0068B898B888B858B848B878B868B898B8D4
:1022AA0088B858B848B878B868B898B888B858B8E4
:1022BA0048B878B868B898B888B858B848B878B8F4
:1022CA0068B898B888B858B848B878B868B898B8A4
:1022DA0088B858B848B878B868B898B888B858B8B4
:1022EA0048B878B868B898B888B858B848B878B8C4
:1022FA0068B898B888B858B848B878B868B898B874
:10230A0088B858B848B878B868B898B888B858B883
:10231A0048B878B868B898B888B858B848B878B893
:10232A0068B898B888B858B848B878B868B898B843
:10233A0088B858B848B878B868B898B888B858B853
:10234A0048B878B868B898B888B858B848B878B863
:10235A0068B898B888B858B848B878B868B898B813
:10236A0088B858B848B878B868B898B888B858B823
:10237A0048B878B868B898B888B858B848B878B833
:10238A0068B898B888B858B848B878B868B898B8E3
:10239A0088B858B848B878B868B898B888B858B8F3
:1023AA0048B878B868B898B888B858B848B878B803
:1023BA0068B898B888B858B848B878B868B898B8B3
:1023CA0088B858B848B878B868B898B888B858B8C3
:1023DA0048B878B868B898B888B858B848B878B8D3
:1023EA0068B898B888B858B848B878B868B898B883
:1023FA0088B858B848B878B868B898B888B858B893
:10240A0048B878B868B898B888B858B848B878B8A2
:10241A0068B898B888B858B848B878B868B898B852
:10242A0088B858B848B878B868B898B888B858B862
:10243A0048B878B868B898B888B858B848B878B872
:10244A0068B898B888B858B848B878B868B898B822
:10245A0088B858B848B878B868B898B888B858B832
:10246A0048B878B868B898B888B858B848B878B842
:10247A0068B898B888B858B848B878B868B898B8F2
:10248A0088B858B848B878B868B898B888B858B802
:10249A0048B878B868B898B888B858B848B878B812
:1024AA0068B898B888B858B848B878B868B898B8C2
:1024BA0088B858B848B878B868B898B888B858B8D2
:1024CA0048B878B868B898B888B858B848B878B8E2
:1024DA0068B898B888B858B848B878B868B898B892
:1024EA0088B858B848B878B868B898B888B858B8A2
:1024FA0048B878B868B898B888B858B848B878B8B2
:10250A0068B898B888B858B848B878B868B898B861
:10251A0088B858B848B878B868B898B888B858B871
:10252A0048B878B868B898B888B858B848B878B881
:10253A0068B898B888B858B848B878B868B898B831
:10254A0088B858B848B878B868B898B888B858B841
:10255A0048B878B868B898B888B858B848B878B851
:10256A0068B898B888B858B848B878B868B898B801
:10257A0088B858B848B878B868B898B888B858B811
:10258A0048B878B868B898B888B858B848B878B821
:10259A0068B898B888B858B848B878B868B898B8D1
:1025AA0088B858B848B878B868B898B888B858B8E1
:1025BA0048B878B868B898B888B858B848B878B8F1
:1025CA0068B898B888B858B848B878B868B898B8A1
:1025DA0088B858B848B878B868B898B888B858B8B1
:1025EA0048B878B868B898B888B858B848B878B8C1
:1025FA0068B898B888B858B848B878B868B898B871
:10260A0088B858B848B878B868B898B888B858B880
:10261A0048B878B868B898B888B858B848B878B890
:10262A0068B898B888B858B848B878B868B898B840
:10263A0088B858B848B878B868B898B888B858B850
:10264A0048B878B868B898B888B858B848B878B860
:10265A0068B898B888B858B848B878B868B898B810
:10266A0088B858B848B878B868B898B888B858B820
:10267A0048B878B868B898B888B858B848B878B830
:10268A0068B898B888B858B848B878B868B898B8E0
:10269A0088B858B848B878B868B898B888B858B8F0
:1026AA0048B878B868B898B888B858B848B878B800
:1026BA0068B898B888B858B848B878B868B898B8B0
:1026CA0088B858B848B878B868B898B888B858B8C0
:1026DA0048B878B868B898B888B858B848B878B8D0
:1026EA0068B898B888B858B848B878B868B898B880
:1026FA0088B858B848B878B868B898B888B858B890
:10270A0048B878B868B898B888B858B848B878B89F
:10271A0068B898B888B858B848B878B868B898B84F
:10272A0088B858B848B878B868B898B888B858B85F
:10273A0048B878B868B898B888B858B848B878B86F
:10274A0068B898B888B858B848B878B868B898B81F
:10275A0088B858B848B878B868B898B888B858B82F
:10276A0048B878B868B898B888B858B848B878B83F
:10277A0068B898B888B858B848B878B868B898B8EF
:10278A0088B858B848B878B868B898B888B858B8FF
:10279A0048B878B868B898B888B858B848B878B80F
:1027AA0068B898B888B858B848B878B868B898B8BF
:1027BA0088B858B848B878B868B898B888B858B8CF
:1027CA0048B878B868B898B888B858B848B878B8DF
:1027DA0068B898B888B858B848B878B868B898B88F
:1027EA0088B858B848B878B868B898B888B858B89F
:1027FA0048B878B868B898B888B858B848B878B8AF
:10280A0068B898B888B858B848B878B868B898B85E
:10281A0088B858B848B878B868B898B888B858B86E
:10282A0048B878B868B898B888B858B848B878B87E
:10283A0068B898B888B858B848B878B868B898B82E
:10284A0088B858B848B878B868B898B888B858B83E
:10285A0048B878B868B898B888B858B848B878B84E
:10286A0068B898B888B858B848B878B868B898B8FE
:10287A0088B858B848B878B868B898B888B858B80E
:10288A0048B878B868B898B888B858B848B878B81E
:10289A0068B898B888B858B848B878B868B898B8CE
:1028AA0088B858B848B878B868B898B888B858B8DE
:1028BA0048B878B868B898B888B858B848B878B8EE
:1028CA0068B898B888B858B848B878B868B898B89E
:1028DA0088B858B848B878B868B898B888B858B8AE
:1028EA0048B878B868B898B888B858B848B878B8BE
:1028FA0068B898B888B858B848B878B868B898B86E
:10290A0088B858B848B878B868B898B888B858B87D
:10291A0048B878B868B898B888B858B848B878B88D
:10292A0068B898B888B858B848B878B868B898B83D
:10293A0088B858B848B878B868B898B888B858B84D
:10294A0048B878B868B898B888B858B848B878B85D
:10295A0068B898B888B858B848B878B868B898B80D
:10296A0088B858B848B878B868B898B888B858B81D
:10297A0048B878B868B898B888B858B848B878B82D
:10298A0068B898B888B858B848B878B868B898B8DD
:10299A0088B858B848B878B868B898B888B858B8ED
:1029AA0048B878B868B898B888B858B848B878B8FD
:1029BA0068B898B888B858B848B878B868B898B8AD
:1029CA0088B858B848B878B868B898B888B858B8BD
:1029DA0048B878B868B898B888B858B848B878B8CD
:1029EA0068B898B888B858B848B878B868B898B87D
:1029FA0088B858B848B878B868B898B888B858B88D
:102A0A0048B878B868B898B888B858B848B878B89C
:102A1A0068B898B888B858B848B878B868B898B84C
:102A2A0088B858B848B878B868B898B888B858B85C
:102A3A0048B878B868B898B888B858B848B878B86C
:102A4A0068B898B888B858B848B878B868B898B81C
:102A5A0088B858B848B878B868B898B888B858B82C
:102A6A0048B878B868B898B888B858B848B878B83C
:102A7A0068B898B888B858B848B878B868B898B8EC
:102A8A0088B858B848B878B868B898B888B858B8FC
:102A9A0048B878B868B898B888B858B848B878B80C
:102AAA0068B898B888B858B848B878B868B898B8BC
:102ABA0088B858B848B878B868B898B888B858B8CC
:102ACA0048B878B868B898B888B858B848B878B8DC
:102ADA0068B898B888B858B848B878B868B898B88C
:102AEA0088B858B848B878B868B898B888B858B89C
:102AFA0048B878B868B898B888B858B848B878B8AC
:102B0A0068B898B888B858B848B878B868B898B85B
:102B1A0088B858B848B878B868B898B888B858B86B
:102B2A0048B878B868B898B888B858B848B878B87B
:102B3A0068B898B888B858B848B878B868B898B82B
:102B4A0088B858B848B878B868B898B888B858B83B
:102B5A0048B878B868B898B888B858B848B878B84B
:102B6A0068B898B888B858B848B878B868B898B8FB
:102B7A0088B858B848B878B868B898B888B858B80B
:102B8A0048B878B868B898B888B858B848B878B81B
:102B9A0068B898B888B858B848B878B868B898B8CB
:102BAA0088B858B848B878B868B898B888B858B8DB
:102BBA0048B878B868B898B888B858B848B878B8EB
:102BCA0068B898B888B858B848B878B868B898B89B
:102BDA0088B858B848B878B868B898B888B858B8AB
:102BEA0048B878B868B898B888B858B848B878B8BB
:102BFA0068B898B888B858B848B878B868B898B86B
:102C0A0088B858B848B878B868B898B888B858B87A
:102C1A0048B878B868B898B888B858B848B878B88A
:102C2A0068B898B888B858B848B878B868B898B83A
:102C3A0088B858B848B878B868B898B888B858B84A
:102C4A0048B878B868B898B888B858B848B878B85A
:102C5A0068B898B888B858B848B878B868B898B80A
:102C6A0088B858B848B878B868B898B888B858B81A
:102C7A0048B878B868B898B888B858B848B878B82A
:102C8A0068B898B888B858B848B878B868B898B8DA
:102C9A0088B858B848B878B868B898B888B858B8EA
:102CAA0048B878B868B898B888B858B848B878B8FA
:102CBA0068B898B888B858B848B878B868B898B8AA
:102CCA0088B858B848B878B868B898B888B858B8BA
:102CDA0048B878B868B898B888B858B848B878B8CA
:102CEA0068B898B888B858B848B878B868B898B87A
:102CFA0088B858B848B878B868B898B888B858B88A
:102D0A0048B878B868B898B888B858B848B878B899
:102D1A0068B898B888B858B848B878B868B898B849
:102D2A0088B858B848B878B868B898B888B858B859
:102D3A0048B878B868B898B888B858B848B878B869
:102D4A0068B898B888B858B848B878B868B898B819
:102D5A0088B858B848B878B868B898B888B858B829
:102D6A0048B878B868B898B888B858B848B878B839
:102D7A0068B898B888B858B848B878B868B898B8E9
:102D8A0088B858B848B878B868B898B888B858B8F9
:102D9A0048B878B868B898B888B858B848B878B809
:102DAA0068B898B888B858B848B878B868B898B8B9
:102DBA0088B858B848B878B868B898B888B858B8C9
:102DCA0048B878B868B898B888B858B848B878B8D9
:102DDA0068B898B888B858B848B878B868B898B889
:102DEA0088B858B848B878B868B898B888B858B899
:102DFA0048B878B868B898B888B858B848B878B8A9
:102E0A0068B898B888B858B848B878B868B898B858
:102E1A0088B858B848B878B868B898B888B858B868
:102E2A0048B878B868B898B888B858B848B878B878
:102E3A0068B898B888B858B848B878B868B898B828
:102E4A0088B858B848B878B868B898B888B858B838
:102E5A0048B878B868B898B888B858B848B878B848
:102E6A0068B898B888B858B848B878B868B898B8F8
:102E7A0088B858B848B878B868B898B888B858B808
:102E8A0048B878B868B898B888B858B848B878B818
:102E9A0068B898B888B858B848B878B868B898B8C8
:102EAA0088B858B848B878B868B898B888B858B8D8
:102EBA0048B878B868B898B888B858B848B878B8E8
:102ECA0068B898B888B858B848B878B868B898B898
:102EDA0088B858B848B878B868B898B888B858B8A8
:102EEA0048B878B868B898B888B858B848B878B8B8
:102EFA0068B898B888B858B848B878B868B898B868
:102F0A0088B858B848B878B868B898B888B858B877
:102F1A0048B878B868B898B888B858B848B878B887
:102F2A0068B898B888B858B848B878B868B898B837
:102F3A0088B858B848B878B868B898B888B858B847
:102F4A0048B878B868B898B888B858B848B878B857
:102F5A0068B898B888B858B848B878B868B898B807
:102F6A0088B858B848B878B868B898B888B858B817
:102F7A0048B878B868B898B888B858B848B878B827
:102F8A0068B898B888B858B848B878B868B898B8D7
:102F9A0088B858B848B878B868B898B888B858B8E7
:102FAA0048B878B868B898B888B858B848B878B8F7
:102FBA0068B898B888B858B848B878B868B898B8A7
:102FCA0088B858B848B878B868B898B888B858B8B7
:102FDA0048B878B868B898B888B858B848B878B8C7
:102FEA0068B898B888B858B848B878B868B898B877
:102FFA0088B858B848B878B868B898B888B858B887
:10300A0048B878B868B898B888B858B848B878B896
:10301A0068B898B888B858B848B878B868B898B846
:10302A0088B858B848B878B868B898B888B858B856
:10303A0048B878B868B898B888B858B848B878B866
:10304A0068B898B888B858B848B878B868B898B816
:10305A0088B858B848B878B868B898B888B858B826
:10306A0048B878B868B898B888B858B848B878B836
:10307A0068B898B888B858B848B878B868B898B8E6
:10308A0088B858B848B878B868B898B888B858B8F6
:10309A0048B878B868B898B888B858B848B878B806
:1030AA0068B898B888B858B848B878B868B898B8B6
:1030BA0088B858B848B878B868B898B888B858B8C6
:1030CA0048B878B868B898B888B858B848B878B8D6
:1030DA0068B898B888B858B848B878B868B898B886
:1030EA0088B858B848B878B868B898B888B858B896
:1030FA0048B878B868B898B888B858B848B878B8A6
:10310A0068B898B888B858B848B878B868B898B855
:10311A0088B858B848B878B868B898B888B858B865
:10312A0048B878B868B898B888B858B848B878B875
:10313A0068B898B888B858B848B878B868B898B825
:10314A0088B858B848B878B868B898B888B858B835
:10315A0048B878B868B898B888B858B848B878B845
:10316A0068B898B888B858B848B878B868B898B8F5
:10317A0088B858B848B878B868B898B888B858B805
:10318A0048B878B868B898B888B858B848B878B815
:10319A0068B898B888B858B848B878B868B898B8C5
:1031AA0088B858B848B878B868B898B888B858B8D5
:1031BA0048B878B868B898B888B858B848B878B8E5
:1031CA0068B898B888B858B848B878B868B898B895
:1031DA0088B858B848B878B868B898B888B858B8A5
:1031EA0048B878B868B898B888B858B848B878B8B5
:1031FA0068B898B888B858B848B878B868B898B865
:10320A0088B858B848B878B868B898B888B858B874
:10321A0048B878B868B898B888B858B848B878B884
:10322A0068B898B888B858B848B878B868B898B834
:10323A0088B858B848B878B868B898B888B858B844
:10324A0048B878B868B898B888B858B848B878B854
:10325A0068B898B888B858B848B878B868B898B804
:10326A0088B858B848B878B868B898B888B858B814
:10327A0048B878B868B898B888B858B848B878B824
:10328A0068B898B888B858B848B878B868B898B8D4
:10329A0088B858B848B878B868B898B888B858B8E4
:1032AA0048B878B868B898B888B858B848B878B8F4
:1032BA0068B898B888B858B848B878B868B898B8A4
:1032CA0088B858B848B878B868B898B888B858B8B4
:1032DA0048B878B868B898B888B858B848B878B8C4
:1032EA0068B898B888B858B848B878B868B898B874
:1032FA0088B858B848B878B868B898B888B858B884
:10330A0048B878B868B898B888B858B848B878B893
:10331A0068B898B888B858B848B878B868B898B843
:10332A0088B858B848B878B868B898B888B858B853
:10333A0048B878B868B898B888B858B848B878B863
:10334A0068B898B888B858B848B878B868B898B813
:10335A0088B858B848B878B868B898B888B858B823
:10336A0048B878B868B898B888B858B848B878B833
:10337A0068B898B888B858B848B878B868B898B8E3
:10338A0088B858B848B878B868B898B888B858B8F3
:10339A0048B878B868B898B888B858B848B878B803
:1033AA0068B898B888B858B848B878B868B898B8B3
:1033BA0088B858B848B878B868B898B888B858B8C3
:1033CA0048B878B868B898B888B858B848B878B8D3
:1033DA0068B898B888B858B848B878B868B898B883
:1033EA0088B858B848B878B868B898B888B858B893
:1033FA0048B878B868B898B888B858B848B878B8A3
:10340A0068B898B888B858B848B878B868B898B852
:10341A0088B858B848B878B868B898B888B858B862
:10342A0048B878B868B898B888B858B848B878B872
:10343A0068B898B888B858B848B878B868B898B822
:10344A0088B858B848B878B868B898B888B858B832
:10345A0048B878B868B898B888B858B848B878B842
:10346A0068B898B888B858B848B878B868B898B8F2
:10347A0088B858B848B878B868B898B888B858B802
:10348A0048B878B868B898B888B858B848B878B812
:10349A0068B898B888B858B848B878B868B898B8C2
:1034AA0088B858B848B878B868B898B888B858B8D2
:1034BA0048B878B868B898B888B858B848B878B8E2
:1034CA0068B898B888B858B848B878B868B898B892
:1034DA0088B858B848B878B868B898B888B858B8A2
:1034EA0048B878B868B898B888B858B848B878B8B2
:1034FA0068B898B888B858B848B878B868B898B862
:10350A0088B858B848B878B868B898B888B858B871
:10351A0048B878B868B898B888B858B848B878B881
:10352A0068B898B888B858B848B878B868B898B831
:10353A0088B858B848B878B868B898B888B858B841
:10354A0048B878B868B898B888B858B848B878B851
:10355A0068B898B888B858B848B878B868B898B801
:10356A0088B858B848B878B868B898B888B858B811
:10357A0048B878B868B898B888B858B848B878B821
:10358A0068B898B888B858B848B878B868B898B8D1
:10359A0088B858B848B878B868B898B888B858B8E1
:1035AA0048B878B868B898B888B858B848B878B8F1
:1035BA0068B898B888B858B848B878B868B898B8A1
:1035CA0088B858B848B878B868B898B888B858B8B1
:1035DA0048B878B868B898B888B858B848B878B8C1
:1035EA0068B898B888B858B848B878B868B898B871
:1035FA0088B858B848B878B868B898B888B858B881
:10360A0048B878B868B898B888B858B848B878B890
:10361A0068B898B888B858B848B878B868B898B840
:10362A0088B858B848B878B868B898B888B858B850
:10363A0048B878B868B898B888B858B848B878B860
:10364A0068B898B888B858B848B878B868B898B810
:10365A0088B858B848B878B868B898B888B858B820
:10366A0048B878B868B898B888B858B848B878B830
:10367A0068B898B888B858B848B878B868B898B8E0
:10368A0088B858B848B878B868B898B888B858B8F0
:10369A0048B878B868B898B888B858B848B878B800
:1036AA0068B898B888B858B848B878B868B898B8B0
:1036BA0088B858B848B878B868B898B888B858B8C0
:1036CA0048B878B868B898B888B858B848B878B8D0
:1036DA0068B898B888B858B848B878B868B898B880
:1036EA0088B858B848B878B868B898B888B858B890
:1036FA0048B878B868B898B888B858B848B878B8A0
:10370A0068B898B888B858B848B878B868B898B84F
:10371A0088B858B848B878B868B898B888B858B85F
:10372A0048B878B868B898B888B858B848B878B86F
:10373A0068B898B888B858B848B878B868B898B81F
:10374A0088B858B848B878B868B898B888B858B82F
:10375A0048B878B868B898B888B858B848B878B83F
:10376A0068B898B888B858B848B878B868B898B8EF
:10377A0088B858B848B878B868B898B888B858B8FF
:10378A0048B878B868B898B888B858B848B878B80F
:10379A0068B898B888B858B848B878B868B898B8BF
:1037AA0088B858B848B878B868B898B888B858B8CF
:1037BA0048B878B868B898B888B858B848B878B8DF
:1037CA0068B898B888B858B848B878B868B898B88F
:1037DA0088B858B848B878B868B898B888B858B89F
:1037EA0048B878B868B898B888B858B848B878B8AF
:1037FA0068B898B888B858B848B878B868B898B85F
:10380A0088B858B848B878B868B898B888B858B86E
:10381A0048B878B868B898B888B858B848B878B87E
:10382A0068B898B888B858B848B878B868B898B82E
:10383A0088B858B848B878B868B898B888B858B83E
:10384A0048B878B868B898B888B858B848B878B84E
:10385A0068B898B888B858B848B878B868B898B8FE
:10386A0088B858B848B878B868B898B888B858B80E
:10387A0048B878B868B898B888B858B848B878B81E
:10388A0068B898B888B858B848B878B868B898B8CE
:10389A0088B858B848B878B868B898B888B858B8DE
:1038AA0048B878B868B898B888B858B848B878B8EE
:1038BA0068B898B888B858B848B878B868B898B89E
:1038CA0088B858B848B878B868B898B888B858B8AE
:1038DA0048B878B868B898B888B858B848B878B8BE
:1038EA0068B898B888B858B848B878B868B898B86E
:1038FA0088B858B848B878B868B898B888B858B87E
:10390A0048B878B868B898B888B858B848B878B88D
:10391A0068B898B888B858B848B878B868B898B83D
:10392A0088B858B848B878B868B898B888B858B84D
:10393A0048B878B868B898B888B858B848B878B85D
:10394A0068B898B888B858B848B878B868B898B80D
:10395A0088B858B848B878B868B898B888B858B81D
:10396A0048B878B868B898B888B858B848B878B82D
:10397A0068B898B888B858B848B878B868B898B8DD
:10398A0088B858B848B878B868B898B888B858B8ED
:10399A0048B878B868B898B888B858B848B878B8FD
:1039AA0068B898B888B858B848B878B868B898B8AD
:1039BA0088B858B848B878B868B898B888B858B8BD
:1039CA0048B878B868B898B888B858B848B878B8CD
:1039DA0068B898B888B858B848B878B868B898B87D
:1039EA0088B858B848B878B868B898B888B858B88D
:1039FA0048B878B868B898B888B858B848B878B89D
:103A0A0068B898B888B858B848B878B868B898B84C
:103A1A0088B858B848B878B868B898B888B858B85C
:103A2A0048B878B868B898B888B858B848B878B86C
:103A3A0068B898B888B858B848B878B868B898B81C
:103A4A0088B858B848B878B868B898B888B858B82C
:103A5A0048B878B868B898B888B858B848B878B83C
:103A6A0068B898B888B858B848B878B868B898B8EC
:103A7A0088B858B848B878B868B898B888B858B8FC
:103A8A0048B878B868B898B888B858B848B878B80C
:103A9A0068B898B888B858B848B878B868B898B8BC
:103AAA0088B858B848B878B868B898B888B858B8CC
:103ABA0048B878B868B898B888B858B848B878B8DC
:103ACA0068B898B888B858B848B878B868B898B88C
:103ADA0088B858B848B878B868B898B888B858B89C
:103AEA0048B878B868B898B888B858B848B878B8AC
:103AFA0068B898B888B858B848B878B868B898B85C
:103B0A0088B858B848B878B868B898B888B858B86B
:103B1A0048B878B868B898B888B858B848B878B87B
:103B2A0068B898B888B858B848B878B868B898B82B
:103B3A0088B858B848B878B868B898B888B858B83B
:103B4A0048B878B868B898B888B858B848B878B84B
:103B5A0068B898B888B858B848B878B868B898B8FB
:103B6A0088B858B848B878B868B898B888B858B80B
:103B7A0048B878B868B898B888B858B848B878B81B
:103B8A0068B898B888B858B848B878B868B898B8CB
:103B9A0088B858B848B878B868B898B888B858B8DB
:103BAA0048B878B868B898B888B858B848B878B8EB
:103BBA0068B898B888B858B848B878B868B898B89B
:103BCA0088B858B848B878B868B898B888B858B8AB
:103BDA0048B878B868B898B888B858B848B878B8BB
:103BEA0068B898B888B858B848B878B868B898B86B
:103BFA0088B858B848B878B868B898B888B858B87B
:103C0A0048B878B868B898B888B858B848B878B88A
:103C1A0068B898B888B858B848B878B868B898B83A
:103C2A0088B858B848B878B868B898B888B858B84A
:103C3A0048B878B868B898B888B858B848B878B85A
:103C4A0068B898B888B858B848B878B868B898B80A
:103C5A0088B858B848B878B868B898B888B858B81A
:103C6A0048B878B868B898B888B858B848B878B82A
:103C7A0068B898B888B858B848B878B868B898B8DA
:103C8A0088B858B848B878B868B898B888B858B8EA
:103C9A0048B878B868B898B888B858B848B878B8FA
:103CAA0068B898B888B858B848B878B868B898B8AA
:103CBA0088B858B848B878B868B898B888B858B8BA
:103CCA0048B878B868B898B888B858B848B878B8CA
:103CDA0068B898B888B858B848B878B868B898B87A
:103CEA0088B858B848B878B868B898B888B858B88A
:103CFA0048B878B868B898B888B858B848B878B89A
:103D0A0068B898B888B858B848B878B868B898B849
:103D1A0088B858B848B878B868B898B888B858B859
:103D2A0048B878B868B898B888B858B848B878B869
:103D3A0068B898B888B858B848B878B868B898B819
:103D4A0088B858B848B878B868B898B888B858B829
:103D5A0048B878B868B898B888B858B848B878B839
:103D6A0068B898B888B858B848B878B868B898B8E9
:103D7A0088B858B848B878B868B898B888B858B8F9
:103D8A0048B878B868B898B888B858B848B878B809
:103D9A0068B898B888B858B848B878B868B898B8B9
:103DAA0088B858B848B878B868B898B888B858B8C9
:103DBA0048B878B868B898B888B858B848B878B8D9
:103DCA0068B898B888B858B848B878B868B898B889
:103DDA0088B858B848B878B868B898B888B858B899
:103DEA0048B878B868B898B888B858B848B878B8A9
:103DFA0068B898B888B858B848B878B868B898B859
:103E0A0088B858B848B878B868B898B888B858B868
:103E1A0048B878B868B898B888B858B848B878B878
:103E2A0068B898B888B858B848B878B868B898B828
:103E3A0088B858B848B878B868B898B888B858B838
:103E4A0048B878B868B898B888B858B848B878B848
:103E5A0068B898B888B858B848B878B868B898B8F8
:103E6A0088B858B848B878B868B898B888B858B808
:103E7A0048B878B868B898B888B858B848B878B818
:103E8A0068B898B888B858B848B878B868B898B8C8
:103E9A0088B858B848B878B868B898B888B858B8D8
:103EAA0048B878B868B898B888B858B848B878B8E8
:103EBA0068B898B888B858B848B878B868B898B898
:103ECA0088B858B848B878B868B898B888B858B8A8
:103EDA0048B878B868B898B888B858B848B878B8B8
:103EEA0068B898B888B858B848B878B868B898B868
:103EFA0088B858B848B878B868B898B888B858B878
:103F0A0048B878B868B898B888B858B848B878B887
:103F1A0068B898B888B858B848B878B868B898B837
:103F2A0088B858B848B878B868B898B888B858B847
:103F3A0048B878B868B898B888B858B848B878B857
:103F4A0068B898B888B858B848B878B868B898B807
:103F5A0088B858B848B878B868B898B888B858B817
:103F6A0048B878B868B898B888B858B848B878B827
:103F7A0068B898B888B858B848B878B868B898B8D7
:103F8A0088B858B848B878B868B898B888B858B8E7
:103F9A0048B878B868B898B888B858B848B878B8F7
:103FAA0068B898B888B858B848B878B868B898B8A7
:103FBA0088B858B848B878B868B898B888B858B8B7
:103FCA0048B878B868B898B888B858B848B878B8C7
:103FDA0068B898B888B858B848B878B868B898B877
:103FEA0088B858B848B878B868B898B888B858B887
:103FFA0048B878B868B898B888B858B848B878B897
:10400A0068B898B888B858B848B878B868B898B846
:10401A0088B858B848B878B868B898B888B858B856
:10402A0048B878B868B898B888B858B848B878B866
:10403A0068B898B888B858B848B878B868B898B816
:10404A0088B858B848B878B868B898B888B858B826
:10405A0048B878B868B898B888B858B848B878B836
:10406A0068B898B888B858B848B878B868B898B8E6
:10407A0088B858B848B878B868B898B888B858B8F6
:10408A0048B878B868B898B888B858B848B878B806
:10409A0068B898B888B858B848B878B868B898B8B6
:1040AA0088B858B848B878B868B898B888B858B8C6
:1040BA0048B878B868B898B888B858B848B878B8D6
:1040CA0068B898B888B858B848B878B868B898B886
:1040DA0088B858B848B878B868B898B888B858B896
:1040EA0048B878B868B898B888B858B848B878B8A6
:1040FA0068B898B888B858B848B878B868B898B856
:10410A0088B858B848B878B868B898B888B858B865
:10411A0048B878B868B898B888B858B848B878B875
:10412A0068B898B888B858B848B878B868B898B825
:10413A0088B858B848B878B868B898B888B858B835
:10414A0048B878B868B898B888B858B848B878B845
:10415A0068B898B888B858B848B878B868B898B8F5
:10416A0088B858B848B878B868B898B888B858B805
:10417A0048B878B868B898B888B858B848B878B815
:10418A0068B898B888B858B848B878B868B898B8C5
:10419A0088B858B848B878B868B898B888B858B8D5
:1041AA0048B878B868B898B888B858B848B878B8E5
:1041BA0068B898B888B858B848B878B868B898B895
:1041CA0088B858B848B878B868B898B888B858B8A5
:1041DA0048B878B868B898B888B858B848B878B8B5
:1041EA0068B898B888B858B848B878B868B898B865
:1041FA0088B858B848B878B868B898B888B858B875
:10420A0048B878B868B898B888B858B848B878B884
:10421A0068B898B888B858B848B878B868B898B834
:10422A0088B858B848B878B868B898B888B858B844
:10423A0048B878B868B898B888B858B848B878B854
:10424A0068B898B888B858B848B878B868B898B804
:10425A0088B858B848B878B868B898B888B858B814
:10426A0048B878B868B898B888B858B848B878B824
:10427A0068B898B888B858B848B878B868B898B8D4
:10428A0088B858B848B878B868B898B888B858B8E4
:10429A0048B878B868B898B888B858B848B878B8F4
:1042AA0068B898B888B858B848B878B868B898B8A4
:1042BA0088B858B848B878B868B898B888B858B8B4
:1042CA0048B878B868B898B888B858B848B878B8C4
:1042DA0068B898B888B858B848B878B868B898B874
:1042EA0088B858B848B878B868B898B888B858B884
:1042FA0048B878B868B898B888B858B848B878B894
:10430A0068B898B888B858B848B878B868B898B843
:10431A0088B858B848B878B868B898B888B858B853
:10432A0048B878B868B898B888B858B848B878B863
:10433A0068B898B888B858B848B878B868B898B813
:10434A0088B858B848B878B868B898B888B858B823
:10435A0048B878B868B898B888B858B848B878B833
:10436A0068B898B888B858B848B878B868B898B8E3
:10437A0088B858B848B878B868B898B888B858B8F3
:10438A0048B878B868B898B888B858B848B878B803
:10439A0068B898B888B858B848B878B868B898B8B3
:1043AA0088B858B848B878B868B898B888B858B8C3
:1043BA0048B878B868B898B888B858B848B878B8D3
:1043CA0068B898B888B858B848B878B868B898B883
:1043DA0088B858B848B878B868B898B888B858B893
:1043EA0048B878B868B898B888B858B848B878B8A3
:1043FA0068B898B888B858B848B878B868B898B853
:10440A0088B858B848B878B868B898B888B858B862
:10441A0048B878B868B898B888B858B848B878B872
:10442A0068B898B888B858B848B878B868B898B822
:10443A0088B858B848B878B868B898B888B858B832
:10444A0048B878B868B898B888B858B848B878B842
:10445A0068B898B888B858B848B878B868B898B8F2
:10446A0088B858B848B878B868B898B888B858B802
:10447A0048B878B868B898B888B858B848B878B812
:10448A0068B898B888B858B848B878B868B898B8C2
:10449A0088B858B848B878B868B898B888B858B8D2
:1044AA0048B878B868B898B888B858B848B878B8E2
:1044BA0068B898B888B858B848B878B868B898B892
:1044CA0088B858B848B878B868B898B888B858B8A2
:1044DA0048B878B868B898B888B858B848B878B8B2
:1044EA0068B898B888B858B848B878B868B898B862
:1044FA0088B858B848B878B868B898B888B858B872
:10450A0048B878B868B898B888B858B848B878B881
:10451A0068B898B888B858B848B878B868B898B831
:10452A0088B858B848B878B868B898B888B858B841
:10453A0048B878B868B898B888B858B848B878B851
:10454A0068B898B888B858B848B878B868B898B801
:10455A0088B858B848B878B868B898B888B858B811
:10456A0048B878B868B898B888B858B848B878B821
:10457A0068B898B888B858B848B878B868B898B8D1
:10458A0088B858B848B878B868B898B888B858B8E1
:10459A0048B878B868B898B888B858B848B878B8F1
:1045AA0068B898B888B858B848B878B868B898B8A1
:1045BA0088B858B848B878B868B898B888B858B8B1
:1045CA0048B878B868B898B888B858B848B878B8C1
:1045DA0068B898B888B858B848B878B868B898B871
:1045EA0088B858B848B878B868B898B888B858B881
:1045FA0048B878B868B898B888B858B848B878B891
:10460A0068B898B888B858B848B878B868B898B840
:10461A0088B858B848B878B868B898B888B858B850
:10462A0048B878B868B898B888B858B848B878B860
:10463A0068B898B888B858B848B878B868B898B810
:10464A0088B858B848B878B868B898B888B858B820
:10465A0048B878B868B898B888B858B848B878B830
:10466A0068B898B888B858B848B878B868B898B8E0
:10467A0088B858B848B878B868B898B888B858B8F0
:10468A0048B878B868B898B888B858B848B878B800
:10469A0068B898B888B858B848B878B868B898B8B0
:1046AA0088B858B848B878B868B898B888B858B8C0
:1046BA0048B878B868B898B888B858B848B878B8D0
:1046CA0068B898B888B858B848B878B868B898B880
:1046DA0088B858B848B878B868B898B888B858B890
:1046EA0048B878B868B898B888B858B848B878B8A0
:1046FA0068B898B888B858B848B878B868B898B850
:10470A0088B858B848B878B868B898B888B858B85F
:10471A0048B878B868B898B888B858B848B878B86F
:10472A0068B898B888B858B848B878B868B898B81F
:10473A0088B858B848B878B868B898B888B858B82F
:10474A0048B878B868B898B888B858B848B878B83F
:10475A0068B898B888B858B848B878B868B898B8EF
:10476A0088B858B848B878B868B898B888B858B8FF
:10477A0048B878B868B898B888B858B848B878B80F
:10478A0068B898B888B858B848B878B868B898B8BF
:10479A0088B858B848B878B868B898B888B858B8CF
:1047AA0048B878B868B898B888B858B848B878B8DF
:1047BA0068B898B888B858B848B878B868B898B88F
:1047CA0088B858B848B878B868B898B888B858B89F
:1047DA0048B878B868B898B888B858B848B878B8AF
:1047EA0068B898B888B858B848B878B868B898B85F
:1047FA0088B858B848B878B868B898B888B858B86F
:10480A0048B878B868B898B888B858B848B878B87E
:10481A0068B898B888B858B848B878B868B898B82E
:10482A0088B858B848B878B868B898B888B858B83E
:10483A0048B878B868B898B888B858B848B878B84E
:10484A0068B898B888B858B848B878B868B898B8FE
:10485A0088B858B848B878B868B898B888B8E8E254
:10486A00E8B9F80131978F0111F00C945204D4C0C1
:10487A00A0910B05A13009F4299AC5D066D0A09160
:10488A000205A13009F475D00E944204A1E0B0E00B
:10489A00A3D0E0910205E03019F46BD00E944204E3
:1048AA000895A0910B05A13009F4299AA091000559
:1048BA00B0910105AA36E0E0BE0750F06ED0A09193
:1048CA000005B0910105A956B04086D09CD007C01A
:1048DA009AD063D0A0910005B09101057DD035D062
:1048EA00A0910205A13009F444D00E944204E0914B
:1048FA000205E030E1F4A0910005B0910105AA3665
:10490A00E0E0BE0750F049D0A0910005B091010542
:10491A00A956B04061D077D007C075D03ED0A091DB
:10492A000005B091010558D024D00E944204089590
:10493A004DD0EBEDEBB94AD049D0EAEFEBB946D00E
:10494A0045D0EEEEEBB942D03CC0EBECEBB93ED031
:10495A00EBEDEBB93BD0E9EDEBB938D0E8EDEBB9CB
:10496A0035D0E8EFEBB932D0EAEFEBB92FD0EAEE67
:10497A0021C0EEECEBB92AD0EEEEEBB927D0E6EE89
:10498A00EBB924D0E7EEEBB921D0E7ECEBB91ED0B6
:10499A00EFECEBB91BD0CCDF0895EBECEBB916D0FA
:1049AA00EBEDEBB913D0EAE9EBB910D0EAEBEBB9CE
:1049BA000DD0EAEAEBB90AD0EEEEEBB907D0EEEC8D
:1049CA00EBB904D0EFECEBB901D008951A9310E1DA
:1049DA001150F1F719910895BA93AA930E94912759
:1049EA0020E030E0EC81FD812E173F0748F404EE09
:1049FA0017E0F80131978F01E1F72F5F3F4FF2CFB0
:104A0A000E9498278AC01A930A930EEB17E090DF48
:104A1A00F80131978F01D9F70991199108950E94E8
:104A2A008F2720E030E010E01830D0F400E01D9924
:104A3A0005C00F5F033308F06DC0F9CF220F331F93
:104A4A00E3B1E870E83011F42F5F3F4F00E01D9B9F
:104A5A0005C00F5F033308F05DC0F9CF1F5FE4CFD5
:104A6A002093040520E030E0E0910405E13F29F4B9
:104A7A0040911305509114052BC0E23F29F440914F
:104A8A0015055091160524C0EF3B29F440911005F5
:104A9A00509111051DC0EE3B29F440910D0550912E
:104AAA000E0516C0ED3B51F4A0910F05A13019F483
:104ABA0045E55AEA02C04AEA55E50AC0EC3B31F438
:104ACA00E0911205F0E0FA6AAF0102C040E050E05E
:104ADA0010E01031F8F400E01D9904C00F5F0333B1
:104AEA00C8F4FACF220F331FE3B1E870E83011F4AB
:104AFA002F5F3F4F57FD02C02C9801C02C9A440FDC
:104B0A00551F00E01D9B04C00F5F033318F4FACF52
:104B1A001F5FDFCFF9010E94962726960895109607
:104B2A0039F080ED97E00197F1F7A8951197C9F749
:104B3A000895552342F4503811F4E0FF04C0319629
:104B4A00691F791F6BF050E8572711F45F93CFC0A4
:104B5A005F3F31F0660F000C57956795752F0895E2
:104B6A005F9300200AF0CFC0C8C050E8192E152262
:104B7A00880F991F9527550F879550E8072E05220C
:104B8A00660F771F7527550F67950895689401C0BA
:104B9A00E8945F93F2DF703818F07F3F08F4A7C0FB
:104BAA0056E1571BAAF4519558300EF4593030F09B
:104BBA00EFEFFFEF6FEF7FE777F91AC077275523FB
:104BCA00B9F0EE0FFF1F661F771F5A95D1F710C075
:104BDA007727583028F0EF2FF62F672F5850F9CF44
:104BEA00552331F076956795F795E7955A95D1F75C
:104BFA0000200AF441D15F910895689401C0E894B5
:104C0A00309760407040B1F0002426F0772312F408
:104C1A00009432D1172E7EE1112032F07A95EE0FF0
:104C2A00FF1F661F111CF9CFEF2FF62F612D5F931F
:104C3A008ADF5F9108954F93AF01FD01DA01AB015D
:104C4A00BC01CA01402D012C142E4F910895EA0F80
:104C5A00FB1F681F0895E095F0956095EF5FFF4F81
:104C6A006F4F08955F9381DF903871F150E81526F0
:104C7A0004C05F937ADF903839F1703821F1572FE9
:104C8A00591B2BF112F4D7DFFACF583118F0AA27A3
:104C9A00BB278827583028F0AB2FB82F88275850C1
:104CAA00F9CF552329F08695B795A7955A95D9F73F
:104CBA00502D512572F0CBDF38F46795F795E795BB
:104CCA00739513F420C0B7DF3EDF5F910895D8F7DC
:104CDA00FBCFEA1BFB0B680B51F010F40094BBDF0F
:104CEA00662392F3EE0FFF1F661F7A95CBF7EE2726
:104CFA00FF27662777275F910895EFEFFFEF6FE7AA
:104D0A007FEF5F910895EFEFFFEF6FE77FE75F9126
:104D1A0008955F932ADF703851F3903841F30124E4
:104D2A000894791F23F41CF300203AF3ECCF0F9276
:104D3A001F932F933F934F93112722279927689FF9
:104D4A00A0018F9F302D410D591F6B9F300D411DC2
:104D5A00591F8E9F27D0BF9F25D06A9F23D0BE9F01
:104D6A001DD0AF9F1BD0AE9F110D291F391F491FA0
:104D7A00591FE32FF42F652F522F4F913F912F91F7
:104D8A001F910F9066232AF0550FEE1FFF1F661F13
:104D9A0002C073954BF2CDDE5F910895100D211D6F
:104DAA00391F02C0200D311D491F591F08955F93F5
:104DBA00DCDE703821F411200AF49FCFA4CF90389A
:104DCA0009F495CF01240894970B1BF4D4F300201F
:104DDA00F3CF792F1F932F933F934F9311241127CA
:104DEA00222733274427552790E2AE17BF078607A5
:104DFA00410730F0AE1BBF0B860B410B089401C074
:104E0A008894551F221F331F111CAA1FBB1F881FFE
:104E1A00441F9A9551F7F901612D4F913F912F91B6
:104E2A001F91662332F0550FEE1FFF1F661F7A95FA
:104E3A0043F27FDE5F91089599239AF0772342F037
:104E4A00971748F029F4AE17BF07860720F031F00C
:104E5A009894889408959894089408951894889436
:104E6A0008957723C2F7971798F3A9F7EA17FB076C
:104E7A00680788F399F3ECCFF09560957095E19502
:104E8A00FF4F6F4F7F4F0895F695E795F695E79593
:104E9A00F695E795F695E79508956F2F660F660BD9
:104EAA00762F0895FA9FF02DEB9FF00DEA9FE02DE3
:104EBA00F10D08950024112490E1AA0FBB1F001CD4
:104ECA00111C0E1A1F0A18F40E0E1F1E01C0A16033
:104EDA009A9599F7FD01D0010895E883F9836A83C9
:104EEA007B830895E883E983EA83EB830895182E88
:104EFA00862F612D192E972F712D1B2EBF2FF12D65
:104F0A001A2EAE2FE12D089500240A160B06080664
:104F1A00090608955A934A933A932A931A930A933D
:104F2A0008955D814C813B812A8119810881089508
:00000001FF
